:020000040000FA
:04000000CFEF38F016
:107142007E306D79335B5F707F73000E896E000E47
:10715200926E000E0F015B6F1200000E8C6E000E1D
:10716200956E000E0F015E6F000E8D6E000E966E14
:10717200000E5F6F12009EAC0AD09D9CC450046E3C
:10718200036AC3500324016E000E0420026E9D8C1C
:107192009E9C01C001F002C002F01200420EF66E87
:1071A200710EF76E000EF86E00EE60F010EE0AF04F
:1071B2000900F5CFEEFFE550E150FAE15E6A5D6A43
:1071C20000019CEF39F0000E151A000E161A000E7F
:1071D200171A800E181A11C001F012C002F013C063
:1071E20003F014C004F015C005F016C006F017C075
:1071F20007F018C008F0D1EC3CF001C011F002C059
:1072020012F003C013F004C014F01200000E416E1D
:107212003DAE06D03C6C3D1ED8B03D2A010E416EFB
:107222003FAE04D03E6C3F1ED8B03F2A3E503F10C6
:10723200D8B418D0010E406E04D0D8903E363F36F6
:10724200402A3FAEFAD73E503C5C3F503D58D8A052
:1072520004D03E503C5E3F503D5AD8903F323E32C1
:10726200402EF1D74150D8B404D03C6C3D1ED8B06A
:107272003D2A3CC03CF03DC03DF012003434353470
:107282003B6E3B50D8A409D0000E326E000E336E16
:10729200000E346E000E356E120032C036F033C06E
:1072A20037F034C038F035C039F0200E05D0D89010
:1072B2003932383237323632E82EF9D736503A6E12
:1072C200348EFF0E3216FF0E3316FF0E3416000EEA
:1072D2003516960E3B5E3BAE0DD03B50800A970FA3
:1072E200D8A0D2D7D89035323432333232323B3E04
:1072F200F9D70DD01F0E3B6407D0C6D7D8903236CF
:107302003336343635363B063B50D8A4F7D73A509D
:10731200D8B408D0351E341E331E326C000E332210
:107322003422352232C032F033C033F034C034F06C
:1073320035C035F01200000E596E000E5A6E000E66
:107342005B6E000E5C6E000E5E6E000E5D6EA6EC55
:1073520038F0AEEC38F0530ED36E940EC06E000EC1
:10736200C16E000E896E000E926E020E0F015B6FEF
:10737200040E946E040E5D6F390EC26EF28EF28CA4
:107382009D8C030E576E980EE82EFED7572EFCD713
:10739200C2825DC001F05EC002F0BCEC38F001C0F8
:1073A2005DF002C05EF05DC057F05EC058F0D8904C
:1073B20058325732D890583257325750806E000E9A
:1073C2001D6E000E1E6EA00E1F6E400E206E5DC062
:1073D20001F05EC002F0036A046A000E30EC3AF07B
:1073E20001C019F002C01AF003C01BF004C01CF067
:1073F20057EC3EF019C032F01AC033F01BC034F023
:107402001CC035F0000E366EC00E376E7F0E386E21
:10741200440E396E8DEC3BF032C059F033C05AF055
:1074220034C05BF035C05CF059C042F05AC043F042
:107432005BC044F05CC045F0D0EC3AF059C032F089
:107442005AC033F05BC034F05CC035F03FEC39F029
:107452003230D8A002D0898294D7899292D7096E0D
:107462000950D8A404AE1AD001C005F002C006F03B
:1074720003C007F004C008F0051E061E071E081E02
:10748200052A000E06220722082205C00BF006C0BC
:107492000CF007C00DF008C00EF008D001C00BF0D0
:1074A20002C00CF003C00DF004C00EF00150021037
:1074B20003100410D8A409D0000E016E000E026E53
:1074C200000E036E000E046E1200960E0A6E06D0B7
:1074D2000A2AD8900E320D320C320B32000E0B14E7
:1074E200056E000E0C14066E000E0D14076EFE0ED5
:1074F2000E14086E0550061007100810D8B40DD0EF
:10750200E7D70A2A010E0B26000E0C220D220E22AC
:10751200D8900E320D320C320B32000E0B14056E67
:10752200000E0C14066E000E0D14076EFF0E0E14E4
:10753200086E0550061007100810D8B407D0E1D71E
:107542000A06D8900B360C360D360E360DBE03D019
:10755200020E0A60F5D70AA00D9ED8900A320AC020
:1075620005F0066A076A086A05C008F0076A066A33
:10757200056A05500B1206500C1207500D120850E6
:107582000E120950D8A404AE01D00E8E0BC001F029
:107592000CC002F00DC003F00EC004F0120020EE89
:1075A20060F010EE47F0090EDBCFE3FFE806FCE2E5
:1075B20042C032F043C033F044C034F045C035F02D
:1075C2003FEC39F032C055F033C056F0000E1D6E5C
:1075D200000E1E6E200E1F6E410E206E55C001F071
:1075E20056C002F0000E02BEFF0E036E046E010EC4
:1075F20030EC3AF001C015F002C016F003C017F0EB
:1076020004C018F042C011F043C012F044C013F09D
:1076120045C014F0E4EC38F011C019F012C01AF0B1
:1076220013C01BF014C01CF057EC3EF019C032F02E
:107632001AC033F01BC034F01CC035F03FEC39F0F7
:1076420032C053F033C054F0000E1D6E000E1E6E99
:10765200C80E1F6E420E206E42C019F043C01AF0CF
:1076620044C01BF045C01CF057EC3EF019C032F08C
:107672001AC033F01BC034F01CC035F03FEC39F0B7
:1076820032C03CF033C03DF0000E3F6E0A0E3E6E3B
:1076920007EC39F03CC051F03DC052F0470E512486
:1076A200D96E000E5220DA6EDF508C6E010E8D6E96
:1076B200070E466E7D0EE82EFED7462EFCD700F052
:1076C200000E8D6E470E5324D96E000E5420DA6ED2
:1076D200DF508C6E020E8D6E070E466E7D0EE82E0A
:1076E200FED7462EFCD700F0000E8D6E470E5524B5
:1076F200D96E000E5620DA6EDF50800F8C6E040EAB
:107702008D6E070E466E7D0EE82EFED7462EFCD7F6
:1077120000F0000E8D6E12003550800B426E355017
:107722003524496E34BE49804950D8B40DD0492819
:10773200D8A408D0000E326E000E336E000E346EE6
:10774200000E356E348E06D0000E326E000E336E91
:10775200000E346E000E356E3950800B421A3950CD
:1077620039244A6E38BE4A804A50D8B40DD04A28CD
:10777200D8A408D0000E366E000E376E000E386E9A
:10778200000E396E388E06D0000E366E000E376E41
:10779200000E386E000E396E365037103810391020
:1077A200D8A417D0000E326E000E336E000E346E67
:1077B200000E356E800E34127F0E35124250351295
:1077C20032C032F033C033F034C034F035C035F05B
:1077D20012004950D8A409D0000E326E000E336E4A
:1077E200000E346E000E356E12004A5049C03AF057
:1077F2003B6A3A5E000E3B5A7F0E3A24436E000EFD
:107802003B20446E32C03EF033C03FF034C040F003
:1078120035C041F0000E326E000E336E000E346E33
:10782200000E356E000E456E000E466E000E476E5F
:10783200000E486E000E4A6E28D04A50D8B411D0BD
:10784200D8903E363F3640364136D89032363336BF
:107852003436353648BE3280D890453646364736BD
:10786200483636503E5C37503F58385040583950B1
:107872004158D8A009D0488C36503E5E37503F5A06
:107882003850405A3950415A4A2A190E4A64D5D7BB
:107892003E503F1040104110D8B411D045800FD057
:1078A200D890323633363436353648BE3280D890A8
:1078B20045364636473648364306D8A0440634AEE7
:1078C200EFD7000E4A6E48AE17D0FF0E45143A6E3F
:1078D200FF0E46143B6EFF0E47143C6E7F0E48149B
:1078E2003D6E3A503B103C103D10D8B403D0010E0F
:1078F2004A6E02D032B0FBD74A50D8B41FD0010E24
:107902003226000E33223422352235A017D032C05F
:107912003AF033C03BF034C03CF035C03DF03D346A
:107922003D323C323B323A323AC032F03BC033F065
:107932003CC034F03DC035F0434A442A44BE10D026
:10794200445003E14328D8A00BD0000E446E436894
:10795200000E326E000E336E000E346E000E356E67
:1079620044BE05D0445011E14304D8B00ED0000EFD
:10797200446E000E436E000E326E000E336E000E29
:10798200346E000E356E000E426E43C049F049A0BF
:1079920002D0348E01D0349ED8904930356E0ED745
:1079A2000450800B0D6E045004240F6E03BE0F8032
:1079B2000F50D8B40DD00F28D8A408D0000E016EF5
:1079C200000E026E000E036E000E046E038E06D0D1
:1079D200000E016E000E026E000E036E000E046EAB
:1079E2000850800B0E6E0D500E18D8A40D8C085046
:1079F20008240E6E07BE0E800E50D8B40DD00E288D
:107A0200D8A408D0000E056E000E066E000E076E9A
:107A1200000E086E078E06D0000E056E000E066E72
:107A2200000E076E000E086E0F500E5CD8B022D00A
:107A32000DAC02D0800E0D1A0FC010F00EC00FF068
:107A420010C00EF001C010F005C001F010C005F02A
:107A520002C010F006C002F010C006F003C010F021
:107A620007C003F010C007F004C010F008C004F013
:107A720010C008F0000E106E0F500EC009F00A6A16
:107A8200095E000E0A5A0ABE2CD00A5004E11A0EF0
:107A9200095CD8A026D00150021003100410D8B4FB
:107AA20002D0010E01D0000E106E000E016E000E0B
:107AB200026E000E036E000E046E0EC00FF015D0A3
:107AC20010A005D0D89010300109106E02D0D890C5
:107AD200103201B0108E0434043203320232013209
:107AE2000F2A0E500F5CD8A0EBD70DBC28D00F5038
:107AF200D8A409D0000E016E000E026E000E036EB5
:107B0200000E046E12000550012606500222075094
:107B120003220850042204A071D010A005D0D890EE
:107B220010300109106E02D0D890103201B0108EC0
:107B3200043404320332023201320F2A5FD005507C
:107B4200015C06500258075003580450800A096E1F
:107B52000850800A0958D8B025D00150055C096E3A
:107B6200025006580A6E035007580B6E045008580C
:107B72000C6EFF0E0924016EFF0E0A20026EFF0E2C
:107B82000B20036EFF0E0C20046E800E0D1A106C7B
:107B92001050D8A40FD0010E0126000E022203229B
:107BA200042208D00550015E0650025A0750035ABB
:107BB2000850045A0150021003100410D8A41CD01B
:107BC2001050D8A419D0000E016E000E026E000EE5
:107BD200036E000E046E1200D89001360236033690
:107BE200043610BE018010A002D0D88001D0D890F7
:107BF20010360F50D8A40F0603AEEED7000E0E6E4D
:107C020010AE0BD010C009F07F0E0916D8B403D005
:107C1200010E0E6E02D001B0FBD70E50D8B420D0A8
:107C2200010E0126000E02220322042204A018D013
:107C320001C009F002C00AF003C00BF004C00CF04E
:107C42000C340C320B320A32093209C001F00AC07C
:107C520002F00BC003F00CC004F00F28D8A40F2AC6
:107C62000F28D8B403D00F50D8A40DD0000E016E47
:107C7200000E026E000E036E000E046E0F50D8A4AA
:107C820002D0000E0D6E0FA002D0038E01D0039E13
:107C9200D8900F30046E0DBE048E01C001F002C0F8
:107CA20002F003C003F004C004F012001C50800B69
:107CB200256E1C501C242B6E1BBE2B802B50D8B45F
:107CC2000DD02B28D8A408D0000E196E000E1A6E03
:107CD200000E1B6E000E1C6E1B8E08D0000E196E5D
:107CE200000E1A6E000E1B6E000E1C6E2050800BD2
:107CF200251A205020242A6E1FBE2A802A50D8B46A
:107D02000DD02A28D8A408D0000E1D6E000E1E6EBB
:107D1200000E1F6E000E206E1F8E08D0000E1D6E0C
:107D2200000E1E6E000E1F6E000E206E2A50D8B47A
:107D320003D02B50D8A409D0000E196E000E1A6E73
:107D4200000E1B6E000E1C6E12001F501902F3CFA4
:107D520030F0F4CF31F03050266E276A286A296A53
:107D620031502C6E2D6A2E6A2F6A1E501A02F3CFE2
:107D720030F0F4CF31F030502626000E2722282290
:107D8200292231502C26000E2D222E222F221D5068
:107D92001B02F3CF30F0F4CF31F030502626000E24
:107DA20027222822292231502C26000E2D222E2273
:107DB2002F2228C029F027C028F026C027F0266AE3
:107DC2001D501A02F3CF30F0F4CF31F03050262696
:107DD20031502722000E2822000E29221E5019029D
:107DE200F3CF30F0F4CF31F0305026263150272235
:107DF200000E2822000E292228C029F027C028F0D0
:107E020026C027F0266A1D501902F3CF30F0F4CFB6
:107E120031F03050262631502722000E2822000E43
:107E220029221F501A02F3CF30F0F4CF31F0305034
:107E32002C2631502D22000E2E22000E2F221E50F3
:107E42001B02F3CF30F0F4CF31F030502C263150FA
:107E52002D22000E2E22000E2F221F501B02F3CFC6
:107E620030F0F4CF31F03050216E3150226E236A5F
:107E7200246A23C024F022C023F021C022F0216A08
:107E820021502C2622502D2223502E2224502F22E4
:107E920026C021F027C022F028C023F029C024F0F8
:107EA200190E05D0D8902432233222322132E82E04
:107EB200F9D721502C2622502D2223502E22245035
:107EC2002F2228C029F027C028F026C027F0266AD2
:107ED2002A502BC021F0226A2126000E2222820E75
:107EE2002124306EFF0E2220316E0FD0D8902C3616
:107EF2002D362E362F3629BE2C80D89026362736A0
:107F0200283629363006D8A031062EAEEFD7000E1D
:107F12002A6E29AE17D0FF0E2614216EFF0E2714EB
:107F2200226EFF0E2814236E7F0E2914246E215018
:107F3200221023102410D8B403D0010E2A6E02D0CE
:107F42002CB0FBD72A50D8B41FD0010E2C26000E1D
:107F52002D222E222F222FA017D02CC021F02DC08F
:107F620022F02EC023F02FC024F0243424322332F6
:107F72002232213221C02CF022C02DF023C02EF05B
:107F820024C02FF0304A312A31BE0DD0315003E1E6
:107F92003028D8A008D0000E2C6E000E2D6E800E58
:107FA2002E6E7F0E20D031BE05D031500EE130044E
:107FB200D8B00BD0000E2C6E000E2D6E000E2E6E61
:107FC200000E2F6E000E256E0FD030C02BF0FF0E6C
:107FD2002C16FF0E2D167F0E2E16000E2F162BB00E
:107FE2002E8ED8902B302F6E25502F122CC019F0C8
:0E7FF2002DC01AF02EC01BF02FC01CF0120084
:020000040020DA
:08000000FFFFFFFFFFFFFFFF00
:020000040030CA
:0E00000000285F3CFFD384FF0FC00FE00F40CD
:00000001FF
