:020000040000FA
:04000000B0EF3FF02E
:107F04007E306D79335B5F707F73000E896E000E77
:107F1400926E000E0F015B6F1200000E8C6E000E4D
:107F2400956E000E0F015E6F000E8D6E000E966E44
:107F3400000E5F6F12009EAC0AD09D9CC450126E5E
:107F4400116AC35011240F6E000E1220106E9D8C06
:107F54009E9C0FC00FF010C010F01200040EF66EBD
:107F64007F0EF76E000EF86E00EE01F010EE0AF0D0
:107F74000900F5CFEEFFE550E150FAE1146A136A07
:107F84000001C5EF3FF0000E0B6E000E0C6E000EEC
:107F94000D6E000E0E6E000E146E000E136E87EC46
:107FA4003FF08FEC3FF0530ED36E940EC06E000E74
:107FB400C16E000E896E000E926E010E0F015B6F92
:107FC400040E946E040E5D6F390EC26EF28EF28C46
:107FD4009D8CC80E00D0E82EFDD7C28213C00FF0CE
:107FE40014C010F09DEC3FF00FC013F010C014F05B
:0C7FF40013A002D08980EDD78990EBD754
:020000040020DA
:08000000FFFFFFFFFFFFFFFF00
:020000040030CA
:0E00000000285F3CFFD384FF0FC00FE00F40CD
:00000001FF
