:020000040000FA
:04000000AFEF3FF02F
:107F02007E306D79335B5F707F73000E896E000E79
:107F1200926E000E0F015B6F1200000E8C6E000E4F
:107F2200956E000E0F015E6F000E8D6E000E966E46
:107F3200000E5F6F12009EAC0AD09D9CC450146E5E
:107F4200136AC3501324116E000E1420126E9D8CFE
:107F52009E9C11C011F012C012F01200020EF66EB9
:107F62007F0EF76E000EF86E00EE01F010EE0AF0D2
:107F72000900F5CFEEFFE550E150FAE10001C2EF52
:107F82003FF0000E0B6E000E0C6E000E0D6E000E1A
:107F92000E6E000E106E000E0F6E86EC3FF08EEC31
:107FA2003FF0530ED36E940EC06E000EC16E000EE3
:107FB200896E000E926E000E0F015B6F040E946EBE
:107FC200040E5D6F390EC26EF28EF28C9D8CC282EF
:107FD2000FC011F010C012F09CEC3FF011C00FF076
:107FE20012C010F00FC015F010C016F0D890163263
:0E7FF2001532D890163215321550806EE8D731
:020000040020DA
:08000000FFFFFFFFFFFFFFFF00
:020000040030CA
:0E00000000285F3CFFD384FF0FC00FE00F40CD
:00000001FF
